{"abi":[{"type":"constructor","inputs":[{"name":"_usdc","type":"address","internalType":"address"}],"stateMutability":"nonpayable"},{"type":"function","name":"USDC","inputs":[],"outputs":[{"name":"","type":"address","internalType":"contract IERC20"}],"stateMutability":"view"},{"type":"function","name":"activeOrders","inputs":[{"name":"","type":"uint256","internalType":"uint256"},{"name":"","type":"uint8","internalType":"enum MentionedMarket.Outcome"},{"name":"","type":"uint8","internalType":"enum MentionedMarket.OrderType"},{"name":"","type":"uint256","internalType":"uint256"}],"outputs":[{"name":"","type":"uint256","internalType":"uint256"}],"stateMutability":"view"},{"type":"function","name":"addWord","inputs":[{"name":"eventId","type":"uint256","internalType":"uint256"},{"name":"text","type":"string","internalType":"string"}],"outputs":[{"name":"","type":"uint256","internalType":"uint256"}],"stateMutability":"nonpayable"},{"type":"function","name":"addWordsBulk","inputs":[{"name":"eventId","type":"uint256","internalType":"uint256"},{"name":"texts","type":"string[]","internalType":"string[]"}],"outputs":[{"name":"","type":"uint256[]","internalType":"uint256[]"}],"stateMutability":"nonpayable"},{"type":"function","name":"balanceOf","inputs":[{"name":"account","type":"address","internalType":"address"},{"name":"id","type":"uint256","internalType":"uint256"}],"outputs":[{"name":"","type":"uint256","internalType":"uint256"}],"stateMutability":"view"},{"type":"function","name":"balanceOfBatch","inputs":[{"name":"accounts","type":"address[]","internalType":"address[]"},{"name":"ids","type":"uint256[]","internalType":"uint256[]"}],"outputs":[{"name":"","type":"uint256[]","internalType":"uint256[]"}],"stateMutability":"view"},{"type":"function","name":"cancelOrder","inputs":[{"name":"orderId","type":"uint256","internalType":"uint256"}],"outputs":[],"stateMutability":"nonpayable"},{"type":"function","name":"claimWinnings","inputs":[{"name":"wordId","type":"uint256","internalType":"uint256"},{"name":"amount","type":"uint256","internalType":"uint256"}],"outputs":[],"stateMutability":"nonpayable"},{"type":"function","name":"createCompleteSets","inputs":[{"name":"wordId","type":"uint256","internalType":"uint256"},{"name":"amount","type":"uint256","internalType":"uint256"}],"outputs":[],"stateMutability":"nonpayable"},{"type":"function","name":"createEvent","inputs":[{"name":"name","type":"string","internalType":"string"}],"outputs":[{"name":"","type":"uint256","internalType":"uint256"}],"stateMutability":"nonpayable"},{"type":"function","name":"events","inputs":[{"name":"","type":"uint256","internalType":"uint256"}],"outputs":[{"name":"name","type":"string","internalType":"string"},{"name":"state","type":"uint8","internalType":"enum MentionedMarket.EventState"},{"name":"createdAt","type":"uint256","internalType":"uint256"}],"stateMutability":"view"},{"type":"function","name":"fillOrder","inputs":[{"name":"orderId","type":"uint256","internalType":"uint256"},{"name":"amount","type":"uint256","internalType":"uint256"}],"outputs":[],"stateMutability":"nonpayable"},{"type":"function","name":"getActiveOrders","inputs":[{"name":"wordId","type":"uint256","internalType":"uint256"},{"name":"outcome","type":"uint8","internalType":"enum MentionedMarket.Outcome"},{"name":"orderType","type":"uint8","internalType":"enum MentionedMarket.OrderType"}],"outputs":[{"name":"","type":"uint256[]","internalType":"uint256[]"}],"stateMutability":"view"},{"type":"function","name":"getBestOrders","inputs":[{"name":"wordId","type":"uint256","internalType":"uint256"},{"name":"outcome","type":"uint8","internalType":"enum MentionedMarket.Outcome"},{"name":"orderType","type":"uint8","internalType":"enum MentionedMarket.OrderType"},{"name":"limit","type":"uint256","internalType":"uint256"}],"outputs":[{"name":"orderIds","type":"uint256[]","internalType":"uint256[]"},{"name":"prices","type":"uint256[]","internalType":"uint256[]"},{"name":"amounts","type":"uint256[]","internalType":"uint256[]"}],"stateMutability":"view"},{"type":"function","name":"getEvent","inputs":[{"name":"eventId","type":"uint256","internalType":"uint256"}],"outputs":[{"name":"name","type":"string","internalType":"string"},{"name":"state","type":"uint8","internalType":"enum MentionedMarket.EventState"},{"name":"createdAt","type":"uint256","internalType":"uint256"},{"name":"wordIds","type":"uint256[]","internalType":"uint256[]"}],"stateMutability":"view"},{"type":"function","name":"getOrder","inputs":[{"name":"orderId","type":"uint256","internalType":"uint256"}],"outputs":[{"name":"","type":"tuple","internalType":"struct MentionedMarket.Order","components":[{"name":"orderId","type":"uint256","internalType":"uint256"},{"name":"wordId","type":"uint256","internalType":"uint256"},{"name":"maker","type":"address","internalType":"address"},{"name":"outcome","type":"uint8","internalType":"enum MentionedMarket.Outcome"},{"name":"orderType","type":"uint8","internalType":"enum MentionedMarket.OrderType"},{"name":"price","type":"uint256","internalType":"uint256"},{"name":"amount","type":"uint256","internalType":"uint256"},{"name":"filled","type":"uint256","internalType":"uint256"},{"name":"cancelled","type":"bool","internalType":"bool"}]}],"stateMutability":"view"},{"type":"function","name":"getTokenBalance","inputs":[{"name":"user","type":"address","internalType":"address"},{"name":"wordId","type":"uint256","internalType":"uint256"},{"name":"outcome","type":"uint8","internalType":"enum MentionedMarket.Outcome"}],"outputs":[{"name":"","type":"uint256","internalType":"uint256"}],"stateMutability":"view"},{"type":"function","name":"getUserOrders","inputs":[{"name":"user","type":"address","internalType":"address"}],"outputs":[{"name":"","type":"uint256[]","internalType":"uint256[]"}],"stateMutability":"view"},{"type":"function","name":"getWord","inputs":[{"name":"wordId","type":"uint256","internalType":"uint256"}],"outputs":[{"name":"eventId","type":"uint256","internalType":"uint256"},{"name":"text","type":"string","internalType":"string"},{"name":"resolved","type":"bool","internalType":"bool"},{"name":"outcome","type":"uint8","internalType":"enum MentionedMarket.Outcome"}],"stateMutability":"view"},{"type":"function","name":"isApprovedForAll","inputs":[{"name":"account","type":"address","internalType":"address"},{"name":"operator","type":"address","internalType":"address"}],"outputs":[{"name":"","type":"bool","internalType":"bool"}],"stateMutability":"view"},{"type":"function","name":"nextEventId","inputs":[],"outputs":[{"name":"","type":"uint256","internalType":"uint256"}],"stateMutability":"view"},{"type":"function","name":"nextOrderId","inputs":[],"outputs":[{"name":"","type":"uint256","internalType":"uint256"}],"stateMutability":"view"},{"type":"function","name":"nextWordId","inputs":[],"outputs":[{"name":"","type":"uint256","internalType":"uint256"}],"stateMutability":"view"},{"type":"function","name":"orders","inputs":[{"name":"","type":"uint256","internalType":"uint256"}],"outputs":[{"name":"orderId","type":"uint256","internalType":"uint256"},{"name":"wordId","type":"uint256","internalType":"uint256"},{"name":"maker","type":"address","internalType":"address"},{"name":"outcome","type":"uint8","internalType":"enum MentionedMarket.Outcome"},{"name":"orderType","type":"uint8","internalType":"enum MentionedMarket.OrderType"},{"name":"price","type":"uint256","internalType":"uint256"},{"name":"amount","type":"uint256","internalType":"uint256"},{"name":"filled","type":"uint256","internalType":"uint256"},{"name":"cancelled","type":"bool","internalType":"bool"}],"stateMutability":"view"},{"type":"function","name":"owner","inputs":[],"outputs":[{"name":"","type":"address","internalType":"address"}],"stateMutability":"view"},{"type":"function","name":"placeLimitOrder","inputs":[{"name":"wordId","type":"uint256","internalType":"uint256"},{"name":"outcome","type":"uint8","internalType":"enum MentionedMarket.Outcome"},{"name":"orderType","type":"uint8","internalType":"enum MentionedMarket.OrderType"},{"name":"price","type":"uint256","internalType":"uint256"},{"name":"amount","type":"uint256","internalType":"uint256"}],"outputs":[{"name":"","type":"uint256","internalType":"uint256"}],"stateMutability":"nonpayable"},{"type":"function","name":"redeemCompleteSets","inputs":[{"name":"wordId","type":"uint256","internalType":"uint256"},{"name":"amount","type":"uint256","internalType":"uint256"}],"outputs":[],"stateMutability":"nonpayable"},{"type":"function","name":"renounceOwnership","inputs":[],"outputs":[],"stateMutability":"nonpayable"},{"type":"function","name":"resolveWord","inputs":[{"name":"wordId","type":"uint256","internalType":"uint256"},{"name":"outcome","type":"uint8","internalType":"enum MentionedMarket.Outcome"}],"outputs":[],"stateMutability":"nonpayable"},{"type":"function","name":"resolveWordsBulk","inputs":[{"name":"wordIds","type":"uint256[]","internalType":"uint256[]"},{"name":"outcomes","type":"uint8[]","internalType":"enum MentionedMarket.Outcome[]"}],"outputs":[],"stateMutability":"nonpayable"},{"type":"function","name":"safeBatchTransferFrom","inputs":[{"name":"from","type":"address","internalType":"address"},{"name":"to","type":"address","internalType":"address"},{"name":"ids","type":"uint256[]","internalType":"uint256[]"},{"name":"values","type":"uint256[]","internalType":"uint256[]"},{"name":"data","type":"bytes","internalType":"bytes"}],"outputs":[],"stateMutability":"nonpayable"},{"type":"function","name":"safeTransferFrom","inputs":[{"name":"from","type":"address","internalType":"address"},{"name":"to","type":"address","internalType":"address"},{"name":"id","type":"uint256","internalType":"uint256"},{"name":"value","type":"uint256","internalType":"uint256"},{"name":"data","type":"bytes","internalType":"bytes"}],"outputs":[],"stateMutability":"nonpayable"},{"type":"function","name":"setApprovalForAll","inputs":[{"name":"operator","type":"address","internalType":"address"},{"name":"approved","type":"bool","internalType":"bool"}],"outputs":[],"stateMutability":"nonpayable"},{"type":"function","name":"setEventState","inputs":[{"name":"eventId","type":"uint256","internalType":"uint256"},{"name":"newState","type":"uint8","internalType":"enum MentionedMarket.EventState"}],"outputs":[],"stateMutability":"nonpayable"},{"type":"function","name":"setTradingFee","inputs":[{"name":"newFeeBps","type":"uint256","internalType":"uint256"}],"outputs":[],"stateMutability":"nonpayable"},{"type":"function","name":"supportsInterface","inputs":[{"name":"interfaceId","type":"bytes4","internalType":"bytes4"}],"outputs":[{"name":"","type":"bool","internalType":"bool"}],"stateMutability":"view"},{"type":"function","name":"tradingFeeBps","inputs":[],"outputs":[{"name":"","type":"uint256","internalType":"uint256"}],"stateMutability":"view"},{"type":"function","name":"transferOwnership","inputs":[{"name":"newOwner","type":"address","internalType":"address"}],"outputs":[],"stateMutability":"nonpayable"},{"type":"function","name":"uri","inputs":[{"name":"","type":"uint256","internalType":"uint256"}],"outputs":[{"name":"","type":"string","internalType":"string"}],"stateMutability":"view"},{"type":"function","name":"userOrders","inputs":[{"name":"","type":"address","internalType":"address"},{"name":"","type":"uint256","internalType":"uint256"}],"outputs":[{"name":"","type":"uint256","internalType":"uint256"}],"stateMutability":"view"},{"type":"function","name":"withdrawFees","inputs":[{"name":"recipient","type":"address","internalType":"address"},{"name":"amount","type":"uint256","internalType":"uint256"}],"outputs":[],"stateMutability":"nonpayable"},{"type":"function","name":"words","inputs":[{"name":"","type":"uint256","internalType":"uint256"}],"outputs":[{"name":"eventId","type":"uint256","internalType":"uint256"},{"name":"text","type":"string","internalType":"string"},{"name":"resolved","type":"bool","internalType":"bool"},{"name":"outcome","type":"uint8","internalType":"enum MentionedMarket.Outcome"}],"stateMutability":"view"},{"type":"event","name":"ApprovalForAll","inputs":[{"name":"account","type":"address","indexed":true,"internalType":"address"},{"name":"operator","type":"address","indexed":true,"internalType":"address"},{"name":"approved","type":"bool","indexed":false,"internalType":"bool"}],"anonymous":false},{"type":"event","name":"CompleteSetsCreated","inputs":[{"name":"wordId","type":"uint256","indexed":true,"internalType":"uint256"},{"name":"user","type":"address","indexed":true,"internalType":"address"},{"name":"amount","type":"uint256","indexed":false,"internalType":"uint256"}],"anonymous":false},{"type":"event","name":"CompleteSetsRedeemed","inputs":[{"name":"wordId","type":"uint256","indexed":true,"internalType":"uint256"},{"name":"user","type":"address","indexed":true,"internalType":"address"},{"name":"amount","type":"uint256","indexed":false,"internalType":"uint256"}],"anonymous":false},{"type":"event","name":"EventCreated","inputs":[{"name":"eventId","type":"uint256","indexed":true,"internalType":"uint256"},{"name":"name","type":"string","indexed":false,"internalType":"string"}],"anonymous":false},{"type":"event","name":"EventStateChanged","inputs":[{"name":"eventId","type":"uint256","indexed":true,"internalType":"uint256"},{"name":"newState","type":"uint8","indexed":false,"internalType":"enum MentionedMarket.EventState"}],"anonymous":false},{"type":"event","name":"OrderCancelled","inputs":[{"name":"orderId","type":"uint256","indexed":true,"internalType":"uint256"}],"anonymous":false},{"type":"event","name":"OrderFilled","inputs":[{"name":"orderId","type":"uint256","indexed":true,"internalType":"uint256"},{"name":"taker","type":"address","indexed":true,"internalType":"address"},{"name":"amount","type":"uint256","indexed":false,"internalType":"uint256"},{"name":"price","type":"uint256","indexed":false,"internalType":"uint256"}],"anonymous":false},{"type":"event","name":"OrderPlaced","inputs":[{"name":"orderId","type":"uint256","indexed":true,"internalType":"uint256"},{"name":"wordId","type":"uint256","indexed":true,"internalType":"uint256"},{"name":"maker","type":"address","indexed":true,"internalType":"address"},{"name":"outcome","type":"uint8","indexed":false,"internalType":"enum MentionedMarket.Outcome"},{"name":"orderType","type":"uint8","indexed":false,"internalType":"enum MentionedMarket.OrderType"},{"name":"price","type":"uint256","indexed":false,"internalType":"uint256"},{"name":"amount","type":"uint256","indexed":false,"internalType":"uint256"}],"anonymous":false},{"type":"event","name":"OwnershipTransferred","inputs":[{"name":"previousOwner","type":"address","indexed":true,"internalType":"address"},{"name":"newOwner","type":"address","indexed":true,"internalType":"address"}],"anonymous":false},{"type":"event","name":"TradingFeeUpdated","inputs":[{"name":"newFeeBps","type":"uint256","indexed":false,"internalType":"uint256"}],"anonymous":false},{"type":"event","name":"TransferBatch","inputs":[{"name":"operator","type":"address","indexed":true,"internalType":"address"},{"name":"from","type":"address","indexed":true,"internalType":"address"},{"name":"to","type":"address","indexed":true,"internalType":"address"},{"name":"ids","type":"uint256[]","indexed":false,"internalType":"uint256[]"},{"name":"values","type":"uint256[]","indexed":false,"internalType":"uint256[]"}],"anonymous":false},{"type":"event","name":"TransferSingle","inputs":[{"name":"operator","type":"address","indexed":true,"internalType":"address"},{"name":"from","type":"address","indexed":true,"internalType":"address"},{"name":"to","type":"address","indexed":true,"internalType":"address"},{"name":"id","type":"uint256","indexed":false,"internalType":"uint256"},{"name":"value","type":"uint256","indexed":false,"internalType":"uint256"}],"anonymous":false},{"type":"event","name":"URI","inputs":[{"name":"value","type":"string","indexed":false,"internalType":"string"},{"name":"id","type":"uint256","indexed":true,"internalType":"uint256"}],"anonymous":false},{"type":"event","name":"WordAdded","inputs":[{"name":"eventId","type":"uint256","indexed":true,"internalType":"uint256"},{"name":"wordId","type":"uint256","indexed":true,"internalType":"uint256"},{"name":"text","type":"string","indexed":false,"internalType":"string"}],"anonymous":false},{"type":"event","name":"WordResolved","inputs":[{"name":"wordId","type":"uint256","indexed":true,"internalType":"uint256"},{"name":"outcome","type":"uint8","indexed":false,"internalType":"enum MentionedMarket.Outcome"}],"anonymous":false},{"type":"error","name":"ERC1155InsufficientBalance","inputs":[{"name":"sender","type":"address","internalType":"address"},{"name":"balance","type":"uint256","internalType":"uint256"},{"name":"needed","type":"uint256","internalType":"uint256"},{"name":"tokenId","type":"uint256","internalType":"uint256"}]},{"type":"error","name":"ERC1155InvalidApprover","inputs":[{"name":"approver","type":"address","internalType":"address"}]},{"type":"error","name":"ERC1155InvalidArrayLength","inputs":[{"name":"idsLength","type":"uint256","internalType":"uint256"},{"name":"valuesLength","type":"uint256","internalType":"uint256"}]},{"type":"error","name":"ERC1155InvalidOperator","inputs":[{"name":"operator","type":"address","internalType":"address"}]},{"type":"error","name":"ERC1155InvalidReceiver","inputs":[{"name":"receiver","type":"address","internalType":"address"}]},{"type":"error","name":"ERC1155InvalidSender","inputs":[{"name":"sender","type":"address","internalType":"address"}]},{"type":"error","name":"ERC1155MissingApprovalForAll","inputs":[{"name":"operator","type":"address","internalType":"address"},{"name":"owner","type":"address","internalType":"address"}]},{"type":"error","name":"OwnableInvalidOwner","inputs":[{"name":"owner","type":"address","internalType":"address"}]},{"type":"error","name":"OwnableUnauthorizedAccount","inputs":[{"name":"account","type":"address","internalType":"address"}]},{"type":"error","name":"ReentrancyGuardReentrantCall","inputs":[]},{"type":"error","name":"SafeERC20FailedOperation","inputs":[{"name":"token","type":"address","internalType":"address"}]}],"bytecode":{"object":"0x60a0346200023157601f62003dad38819003918201601f19168301926001600160401b03929091838511838610176200021d5781602092849260409788528339810103126200023157516001600160a01b038082169290918390036200023157835160208101918211818310176200021d575f918552526002546001908181811c9116801562000212575b6020821014620001fe57601f8111620001b0575b505f6002553315620001995760038054336001600160a01b031982168117909255855193167f8be0079c531659141344cd1fd0a4f28419497f9722a3daafe3b4186f6b6457e05f80a3807f9b779b17422d0df92223018b32b4d1fa46e071723d6817e2486d003becc55f005580600455806005556006555f600755811562000157575060805251613b77908162000236823960805181818161087f0152818161099401528181611a8a01528181611fb001526122e50152f35b62461bcd60e51b815260206004820152601460248201527f496e76616c6964205553444320616464726573730000000000000000000000006044820152606490fd5b8351631e4fbdf760e01b81525f6004820152602490fd5b60025f52601f0160051c7f405787fa12a823e0f2b7631cc41b3ba8828b3321ca811111fa75cd3aa3bb5ace9081019082905b828110620001f25750506200009e565b5f8155018290620001e2565b634e487b7160e01b5f52602260045260245ffd5b90607f16906200008a565b634e487b7160e01b5f52604160045260245ffd5b5f80fdfe60806040526004361015610011575f80fd5b5f3560e01c8062fdd58e146102b357806301ffc9a7146102ae5780630b791430146102a95780630e89341c146102a45780631c60c9751461029f578063286db5c21461029a5780632a58b330146102955780632eb2c2d614610290578063352099461461028b57806337467204146102865780633978798f1461028157806343503fac1461027c57806344a17b43146102775780634e1273f414610272578063514fcac71461026d57806363c69f08146102685780636d1884e014610263578063715018a61461025e57806378262df5146102595780637d12058014610254578063853ffc1a1461024f578063856652e91461024a578063884fc8381461024557806389a30271146102405780638da5cb5b1461023b578063924cca9a146102365780639bc2bc71146102315780639f9d903a1461022c578063a11c907a14610227578063a22cb46514610222578063a85c38ef1461021d578063ad3b1b4714610218578063ae45248114610213578063b0d54bcf1461020e578063b2c55a3414610209578063c37dfc5b14610204578063cde3c7a3146101ff578063d09ef241146101fa578063d31c7198146101f5578063e985e9c5146101f0578063f242432a146101eb5763f2fde38b146101e6575f80fd5b612679565b6125ae565b612552565b612515565b612406565b612326565b612114565b612084565b611ff1565b611fd4565b611f86565b611f19565b611de6565b611cb8565b611c9b565b611afe565b611ae1565b611ab9565b611a75565b611a28565b6119d1565b61195a565b6117e8565b6116d8565b61167d565b611601565b6115b5565b611490565b6113d6565b61126f565b611187565b610ff9565b610e4a565b610d6d565b610b38565b610a09565b610913565b6106ce565b6105e1565b61057d565b610356565b6102fc565b600435906001600160a01b03821682036102ce57565b5f80fd5b602435906001600160a01b03821682036102ce57565b35906001600160a01b03821682036102ce57565b346102ce5760403660031901126102ce57602061033b61031a6102b8565b6024355f525f835260405f209060018060a01b03165f5260205260405f2090565b54604051908152f35b6001600160e01b03198116036102ce57565b346102ce5760203660031901126102ce57602060043561037581610344565b63ffffffff60e01b16636cdb3d1360e11b81149081156103b3575b81156103a2575b506040519015158152f35b6301ffc9a760e01b1490505f610397565b6303a24d0760e21b81149150610390565b90600182811c921680156103f2575b60208310146103de57565b634e487b7160e01b5f52602260045260245ffd5b91607f16916103d3565b634e487b7160e01b5f52604160045260245ffd5b61012081019081106001600160401b0382111761042c57604052565b6103fc565b602081019081106001600160401b0382111761042c57604052565b90601f801991011681019081106001600160401b0382111761042c57604052565b9060405191825f825461047f816103c4565b908184526020946001916001811690815f146104ed57506001146104af575b5050506104ad9250038361044c565b565b5f90815285812095935091905b8183106104d55750506104ad93508201015f808061049e565b855488840185015294850194879450918301916104bc565b925050506104ad94925060ff191682840152151560051b8201015f808061049e565b91908251928382525f5b848110610539575050825f602080949584010152601f8019910116010190565b602081830181015184830182015201610519565b634e487b7160e01b5f52602160045260245ffd5b6003111561056b57565b61054d565b90600382101561056b5752565b346102ce5760203660031901126102ce576004355f5260086020526105cd60405f206105a88161046d565b90600260ff6001830154169101546105d860405194859460608652606086019061050f565b926020850190610570565b60408301520390f35b346102ce576020806003193601126102ce57604051905f8260025491610606836103c4565b92838352600190856001821691825f146106a4575050600114610649575b506106319250038361044c565b61064560405192828493845283019061050f565b0390f35b84915060025f527f405787fa12a823e0f2b7631cc41b3ba8828b3321ca811111fa75cd3aa3bb5ace905f915b85831061068c57505061063193508201015f610624565b80548389018501528794508693909201918101610675565b60ff19168582015261063195151560051b85010192505f91506106249050565b600211156102ce57565b346102ce5760a03660031901126102ce576024356004356106ee826106c4565b604435906106fb826106c4565b606435926084359161070b61304d565b805f526009602052604092835f20545f52600860205260ff6001855f20015416600381101561056b57610645966108d39661076960017f9468d7aec5eca753a15800c932d4a33808789626a36f7fbd3e5a9fa66e26dcf19414612705565b845f52600960205261078460ff6002895f2001541615612742565b6107a1610799865f52600960205260405f2090565b541515612786565b6107ac8415156127c8565b6107bb620f4240831115612814565b6006549788946107d26107cd87612874565b600655565b6108366107dd610a26565b87815260208101899052338b8201526107f98a60608301612887565b6108068560808301612887565b8560a08201528260c08201525f60e08201525f610100820152610831885f52600a60205260405f2090565b6128d8565b335f908152600c6020526040902061085490879061298e565b61298e565b61085d83611149565b826108fa576108a361087b61087283876129df565b620f4240900490565b30337f000000000000000000000000000000000000000000000000000000000000000061312b565b6108c68661084f856108c18c6108c18d5f52600b60205260405f2090565b6124ff565b88519384933399856129f2565b0390a46108ec60015f80516020613b2283398151915255565b519081529081906020820190565b61090e816109088a8a6130b3565b336130dc565b6108a3565b346102ce5760403660031901126102ce5760243560043561093261304d565b805f52600960205260ff600260405f20015416156109d0578161098c81610908610991946109646109b89715156127c8565b610986600261097b835f52600960205260405f2090565b015460081c60ff1690565b906130b3565b6129c7565b337f00000000000000000000000000000000000000000000000000000000000000006131bc565b6109ce60015f80516020613b2283398151915255565b005b60405162461bcd60e51b815260206004820152601160248201527015dbdc99081b9bdd081c995cdbdb1d9959607a1b6044820152606490fd5b346102ce575f3660031901126102ce576020600654604051908152f35b604051906104ad82610410565b60405190608082018281106001600160401b0382111761042c57604052565b6001600160401b03811161042c5760051b60200190565b9080601f830112156102ce576020908235610a8381610a52565b93610a91604051958661044c565b81855260208086019260051b8201019283116102ce57602001905b828210610aba575050505090565b81358152908301908301610aac565b6001600160401b03811161042c57601f01601f191660200190565b929192610af082610ac9565b91610afe604051938461044c565b8294818452818301116102ce578281602093845f960137010152565b9080601f830112156102ce57816020610b3593359101610ae4565b90565b346102ce5760a03660031901126102ce57610b516102b8565b610b596102d2565b906044356001600160401b038082116102ce57610b7b60049236908401610a69565b926064358281116102ce57610b939036908501610a69565b916084359081116102ce57610bab9036908501610b1a565b93610bb6823361321b565b6001600160a01b0386811695908615610d56578316958615610d405782518551808203610d1b5750505f5b8351811015610cb1578060051b6020808287010151918801015190610c2687610c11835f525f60205260405f2090565b9060018060a01b03165f5260205260405f2090565b54828110610c7357610c638c610c11859460019796610c6b9503610c558d610c11845f525f60205260405f2090565b555f525f60205260405f2090565b918254613040565b905501610be1565b604080516303dee4c560e01b81526001600160a01b038a16818d01908152602081019390935290820193909352606081019190915281906080010390fd5b506109ce92888587938a60018551145f14610cf45760208581015187820151604080519283529282015233915f80516020613b0283398151915291a45b33613aaa565b6040515f80516020613ae2833981519152339180610d138a8a8361379b565b0390a4610cee565b60408051635b05999160e01b8152808a01938452602084019290925290918291010390fd5b604051626a0d4560e21b81525f81880152602490fd5b604051632bfa23e760e11b81525f81880152602490fd5b346102ce5760403660031901126102ce576004357f13031501bb4d6383082d7594301dace57efa521a6fe4615fe0bce6f94c73d87e6020602435610db0816106c4565b610db8613289565b835f5260098252610dd360ff600260405f2001541615612742565b835f5260098252610de960405f20541515612786565b835f5260098252610e0b81600260405f2001600160ff19825416178155612a20565b60405190610e1881611149565b8152a2005b9181601f840112156102ce578235916001600160401b0383116102ce57602083818601950101116102ce57565b346102ce5760403660031901126102ce576024356004356001600160401b0382116102ce57610e80610645923690600401610e1d565b91610e89613289565b610ea96002610ea0835f52600860205260405f2090565b01541515612a4f565b610eda610ecb6001610ec3845f52600860205260405f2090565b015460ff1690565b610ed481610561565b15612a92565b7fb2fccbb60957b9c25664c306aa9ecc26aa138762ec4d2095b99e28f835cb46be600554938493610f12610f0d86612874565b600555565b610f53610f1d610a33565b858152610f2b368585610ae4565b60208201525f60408201525f6060820152610f4e875f52600960205260405f2090565b612b2d565b610f71856003610f6b875f52600860205260405f2090565b0161298e565b610fa7610f9a866004610f8c885f52600860205260405f2090565b01905f5260205260405f2090565b805460ff19166001179055565b610fb660405192839283612c59565b0390a36040519081529081906020820190565b9181601f840112156102ce578235916001600160401b0383116102ce576020808501948460051b0101116102ce57565b346102ce576040806003193601126102ce576001600160401b03906004358281116102ce5761102c903690600401610fc9565b926024359081116102ce57611045903690600401610fc9565b939091611050613289565b61105b858314612c80565b5f5b82811061106657005b8061108961079961107a6001948787612cc5565b355f52600960205260405f2090565b6110f760026110af6110aa6110a683610ec361107a888c8c612cc5565b1590565b612742565b6110cf816110c161107a868a8a612cc5565b01805460ff19166001179055565b6110e26110dd848b8a612cc5565b612cd5565b906110f161107a858989612cc5565b01612a20565b611102818585612cc5565b357f13031501bb4d6383082d7594301dace57efa521a6fe4615fe0bce6f94c73d87e6111406111356110dd858c8b612cc5565b895191829182612a3f565b0390a20161105d565b6002111561056b57565b906060926111729196959496835260806020840152608083019061050f565b941515604082015261118383611149565b0152565b346102ce5760203660031901126102ce576004355f52600960205260405f208054906106456111bd60016002840154930161046d565b9160405193849360ff808460081c1693169185611153565b60809060031901126102ce57600435906024356111f1816106c4565b906044356111fe816106c4565b9060643590565b9081518082526020808093019301915f5b828110611224575050505090565b835185529381019392810192600101611216565b9161126190611253610b359593606086526060860190611205565b908482036020860152611205565b916040818403910152611205565b346102ce576108c16112996108c1611286366111d5565b95929390935f52600b60205260405f2090565b80549091808210156113bf5781905b6112b182612d0b565b916112bb81612d0b565b946112c582612d0b565b915f935f5b878110806113b6575b1561138c576113006112f26112e883876119bc565b90549060031b1c90565b5f52600a60205260405f2090565b6113116110a6600683015460ff1690565b8061137b575b61132b575b5061132690612874565b6112ca565b6113269196611364826113749354611343848d612d5a565b526003810154611353848f612d5a565b526005600482015491015490612d6e565b61136e8289612d5a565b52612874565b959061131c565b506005810154600482015411611317565b888761064587898781106113a8575b5060405193849384611238565b80845280855281528461139b565b508186106112d3565b806112a8565b906020610b35928181520190611205565b346102ce5760403660031901126102ce576004356001600160401b038082116102ce57366023830112156102ce57816004013561141281610a52565b92611420604051948561044c565b8184526020916024602086019160051b830101913683116102ce57602401905b82821061147957856024358681116102ce576106459161146761146d923690600401610a69565b90612d7b565b604051918291826113c5565b838091611485846102e8565b815201910190611440565b346102ce5760203660031901126102ce576004356114ac61304d565b6114be815f52600a60205260405f2090565b6002810180546114e1906001600160a01b03166001600160a01b03163314612e17565b611522600683016114fe6114f96110a6835460ff1690565b612e55565b6005840190611519825491610f9a6004880193845411612e95565b54905490612d6e565b905460ff8160a81c1661153481611149565b611587575061087261099191600361154d9401546129df565b7f61b9399f2f0f32ca39ce8d7be32caed5ec22fe07a6daba3a467ed479ec6065825f80a26109ce60015f80516020613b2283398151915255565b6115a09060ff60016115b09501549160a01c16906130b3565b906115a9612ed2565b91336132b5565b61154d565b346102ce5760203660031901126102ce576001600160a01b036115d66102b8565b165f52600c6020526106456115ed60405f20612ee4565b604051918291602083526020830190611205565b346102ce5760203660031901126102ce576004355f52600860205261166060405f2061064560ff600183015416600283015461164860036116418661046d565b9501612ee4565b9061166b60405196879660808852608088019061050f565b936020870190610570565b60408501528382036060850152611205565b346102ce575f3660031901126102ce57611695613289565b600380546001600160a01b031981169091555f906001600160a01b03167f8be0079c531659141344cd1fd0a4f28419497f9722a3daafe3b4186f6b6457e08280a3005b346102ce5760403660031901126102ce576024356004356116f761304d565b805f52600960205261171360ff600260405f2001541615612742565b805f52600960205261172a60405f20541515612786565b6117358215156127c8565b61173e8161307c565b61174782613092565b61174f612cdf565b611757612cdf565b918151156117e35761178e93602083015261177182612d3d565b528461177c83612d4d565b528461178783612d3d565b52336133ca565b61179a610991836129c7565b60405191825233917fb570408dd4826b7eb7cce2fd91579673926126b4ea2a48ddfdc4e77a3884f61d9080602081015b0390a36109ce60015f80516020613b2283398151915255565b6119a8565b346102ce576040806003193601126102ce5760048035906024356001600160401b0381116102ce5761181e903690600401610fc9565b929093611829613289565b6118406002610ea0845f52600860205260405f2090565b60019461185d610ecb6001610ec3865f52600860205260405f2090565b61186685612d0b565b945f5b81811061187e576040518061064589826113c5565b879060055461188f610f0d82612874565b6118d76118b56118a0848789612f32565b91906118aa610a33565b928b84523691610ae4565b60208201525f888201525f6060820152610f4e835f52600960205260405f2090565b6118ef816003610f6b8a5f52600860205260405f2090565b611909610f9a828a610f8c8b5f52600860205260405f2090565b80611914838b612d5a565b52867fb2fccbb60957b9c25664c306aa9ecc26aa138762ec4d2095b99e28f835cb46be611942848789612f32565b906119518a5192839283612c59565b0390a301611869565b346102ce5760603660031901126102ce576106456115ed6119a3602435611980816106c4565b6108c160443591611990836106c4565b6004355f52600b60205260405f206124ff565b612ee4565b634e487b7160e01b5f52603260045260245ffd5b80548210156117e3575f5260205f2001905f90565b346102ce5760403660031901126102ce576119ea6102b8565b6001600160a01b03165f908152600c60205260409020805460243591908210156102ce57602091611a1a916119bc565b90546040519160031b1c8152f35b346102ce5760203660031901126102ce576004355f52600960205260405f208054906106456002611a5b6001840161046d565b92015460405193849360ff808460081c1693169185611153565b346102ce575f3660031901126102ce576040517f00000000000000000000000000000000000000000000000000000000000000006001600160a01b03168152602090f35b346102ce575f3660031901126102ce576003546040516001600160a01b039091168152602090f35b346102ce575f3660031901126102ce576020600754604051908152f35b346102ce576020806003193601126102ce576001600160401b03906004358281116102ce57611b31903690600401610e1d565b92611b3a613289565b60045492611b4784612874565b600455835f52600860205260405f2091851161042c57611b7185611b6b84546103c4565b84612ade565b5f90601f8611600114611c0957509383927f9ce3d6db707bca4ba0eabed8fba1e2c013a1c0bc1132a764170a7854d198c73d92611bc78380610645995f91611bfe575b508160011b915f199060031b1c19161790565b81555b60018101805460ff19169055600242910155611beb60405192839283612c59565b0390a26040519081529081906020820190565b90508401355f611bb4565b90601f198616611c1c845f5260205f2090565b925f905b828210611c83575050928692869592610645987f9ce3d6db707bca4ba0eabed8fba1e2c013a1c0bc1132a764170a7854d198c73d9610611c6a575b5050600183811b018155611bca565b8301355f19600386901b60f8161c191690555f80611c5b565b80600185968294968a01358155019501930190611c20565b346102ce575f3660031901126102ce576020600454604051908152f35b346102ce576040806003193601126102ce5760043560243591611cd961304d565b815f526009602052805f20545f52600860205260ff6001825f2001541690600382101561056b57611d2d60017ffa6dde9e66d8758a54bef96a758f029e9ebc982cdfb3c4ede8f91b50adb5d6369314612705565b825f526009602052611d4860ff6002835f2001541615612742565b825f526009602052611d5e815f20541515612786565b611d698415156127c8565b611d7561087b856129c7565b611dd6611d818461307c565b611d8a85613092565b90611d93612cdf565b91611d9c612cdf565b91611da684612d4d565b52611db083612d3d565b5286611dbb82612d4d565b5286611dc682612d3d565b52611dcf612ed2565b91336133ec565b51928352339280602081016117ca565b346102ce5760403660031901126102ce57611dff6102b8565b60243580151581036102ce573315611e9a576001600160a01b038216918215611e8357335f908152600160205260409020611e51918391611e409190610c11565b9060ff801983541691151516179055565b604051901515815233907f17307eab39ab6107e8899845ad3d59bd9653f200f220920489ca2b5937696c3190602090a3005b60405162ced3e160e81b81525f6004820152602490fd5b604051631f18c42760e11b81525f6004820152602490fd5b90611ebc82611149565b52565b979491926101009794919a9996936101208a019b8a5260208a015260018060a01b03166040890152611ef081611149565b6060880152611efe81611149565b608087015260a086015260c085015260e08401521515910152565b346102ce5760203660031901126102ce576004355f52600a60205260405f2080546106456001830154600284015493600381015460048201549060ff60066005850154940154169360405197889760ff8260a81c169260ff8360a01c169260018060a01b0316918a611ebf565b346102ce5760403660031901126102ce576109ce611fa26102b8565b611faa613289565b602435907f00000000000000000000000000000000000000000000000000000000000000006131bc565b346102ce575f3660031901126102ce576020600554604051908152f35b346102ce5760203660031901126102ce5760043561200d613289565b6103e88111612047576020817fa3dfe13986da4bcfdc32f544ebe130cb8ec20a2afc45e7c3994975076a08e57892600755604051908152a1005b60405162461bcd60e51b81526020600482015260156024820152744665652063616e6e6f74206578636565642031302560581b6044820152606490fd5b346102ce5760403660031901126102ce5760043560243560038110156102ce5760207fc28dc97ae79efd4c2dd1a92258023fe0ae6fefc41982f79a9b2422b551649523916120d0613289565b835f52600882526120e9600260405f2001541515612a4f565b835f5260088252600160405f200160ff1981541660ff83161790556121116040518092610570565ba2005b346102ce5760403660031901126102ce5760243560043561213361304d565b7f36a54e61f475a84cd4a5c3b403be29e6101b05ec843b61fb97c3e123ff59b3f46117ca612169835f52600a60205260405f2090565b61218261217d6110a6600684015460ff1690565b612f73565b600581016121b66121ae8254600485015461219e818310612fb1565b6121a98a15156127c8565b612d6e565b871115612ff4565b600182015461220b60016121fc81610ec36121d9865f52600960205260405f2090565b6121ed6110aa6110a6600284015460ff1690565b545f52600860205260405f2090565b61220581610561565b14612705565b6003830192878454600261224961223c61223161222886866129df565b600754906129df565b6402540be400900490565b6121a961087286866129df565b93019060ff612260835496828860a01c16906130b3565b9560a81c1661226e81611149565b6122cd575092816122976122a69561228a6109919585336130dc565b546001600160a01b031690565b916122a0612ed2565b926132b5565b6122b1868254613040565b9055546040805195865260208601919091523394918291820190565b919061228a6123219561231261230a61087261231b967f0000000000000000000000000000000000000000000000000000000000000000986129df565b30338861312b565b8c6115a9612ed2565b906131bc565b6122a6565b346102ce5760603660031901126102ce57602061237e6123446102b8565b61235b604435612353816106c4565b6024356130b3565b5f908152602081815260408083206001600160a01b039094168352929052205490565b604051908152f35b81518152602080830151908201526040808301516001600160a01b0316908201526060820151610120820193926104ad92916123c181611149565b60608301526123d860808201516080840190611eb2565b60a081015160a083015260c081015160c083015260e081015160e08301526101008091015191019015159052565b346102ce5760203660031901126102ce5761064560405161242681610410565b5f81525f60208201525f60408201525f60608201525f60808201525f60a08201525f60c08201525f60e08201525f610100809201526004355f52600a6020526124f360405f20916124eb600661247a610a26565b855481526001860154602082015260028601546001600160a01b03811660408301529095906124c59060ff906124b8828260a01c1660608b01612887565b60a81c1660808801612887565b600381015460a0870152600481015460c0870152600581015460e0870152015460ff1690565b151590830152565b60405191829182612386565b9061250981611149565b5f5260205260405f2090565b346102ce576108c161253d612529366111d5565b949190925f52600b60205260405f206124ff565b80548210156102ce57602091611a1a916119bc565b346102ce5760403660031901126102ce57602060ff6125a26125726102b8565b61257a6102d2565b6001600160a01b039182165f9081526001865260408082209290931681526020919091522090565b54166040519015158152f35b346102ce5760a03660031901126102ce576125c76102b8565b6125cf6102d2565b6084356001600160401b0381116102ce576125ee903690600401610b1a565b906125f9833361321b565b6001600160a01b03818116156126615783161561264a576109ce926126426064356044359160405192600184526020840152604083019160018352606084015260808301604052565b9290916134b8565b604051626a0d4560e21b81525f6004820152602490fd5b604051632bfa23e760e11b81525f6004820152602490fd5b346102ce5760203660031901126102ce576126926102b8565b61269a613289565b6001600160a01b039081169081156126ed57600354826bffffffffffffffffffffffff60a01b821617600355167f8be0079c531659141344cd1fd0a4f28419497f9722a3daafe3b4186f6b6457e05f80a3005b604051631e4fbdf760e01b81525f6004820152602490fd5b1561270c57565b60405162461bcd60e51b815260206004820152600e60248201526d4576656e74206e6f74206c69766560901b6044820152606490fd5b1561274957565b60405162461bcd60e51b815260206004820152601560248201527415dbdc9908185b1c9958591e481c995cdbdb1d9959605a1b6044820152606490fd5b1561278d57565b60405162461bcd60e51b815260206004820152601360248201527215dbdc9908191bd95cc81b9bdd08195e1a5cdd606a1b6044820152606490fd5b156127cf57565b60405162461bcd60e51b815260206004820152601760248201527f416d6f756e74206d75737420626520706f7369746976650000000000000000006044820152606490fd5b1561281b57565b60405162461bcd60e51b815260206004820152601a60248201527f50726963652063616e6e6f7420657863656564203120555344430000000000006044820152606490fd5b634e487b7160e01b5f52601160045260245ffd5b5f1981146128825760010190565b612860565b611ebc82611149565b9061289a81611149565b815460ff60a01b191660a09190911b60ff60a01b16179055565b906128be81611149565b815460ff60a81b191660a89190911b60ff60a81b16179055565b600661297b6101006104ad9480518555602081015160018601556129566002860161292b61290f604085015160018060a01b031690565b82546001600160a01b0319166001600160a01b03909116178255565b612942606084015161293c81611149565b82612890565b60808301519061295182611149565b6128b4565b60a0810151600386015560c0810151600486015560e081015160058601550151151590565b91019060ff801983541691151516179055565b80546801000000000000000081101561042c576129b0916001820181556119bc565b819291549060031b91821b915f19901b1916179055565b90620f42409182810292818404149015171561288257565b8181029291811591840414171561288257565b909493926060926080830196612a0781611149565b8352612a1281611149565b602083015260408201520152565b90612a2a81611149565b61ff0082549160081b169061ff001916179055565b91906020830192611ebc82611149565b15612a5657565b60405162461bcd60e51b8152602060048201526014602482015273115d995b9d08191bd95cc81b9bdd08195e1a5cdd60621b6044820152606490fd5b15612a9957565b60405162461bcd60e51b815260206004820152601f60248201527f43616e206f6e6c792061646420776f72647320696e207072656d61726b6574006044820152606490fd5b601f8211612aeb57505050565b5f5260205f20906020601f840160051c83019310612b23575b601f0160051c01905b818110612b18575050565b5f8155600101612b0d565b9091508190612b04565b815181556001808201906020808501518051926001600160401b03841161042c57612b6284612b5c87546103c4565b87612ade565b602092601f8511600114612be157505092612b9e836002946104ad9897946060975f92612bd6575b50508160011b915f199060031b1c19161790565b90555b0191612bc5612bb36040830151151590565b849060ff801983541691151516179055565b015190612bd182611149565b612a20565b015190505f80612b8a565b929190601f19851690612bf7875f5260205f2090565b945f915b838310612c4257505050936104ad979693606096936001938360029810612c2a575b505050811b019055612ba1565b01515f1960f88460031b161c191690555f8080612c1d565b848601518755958601959481019491810191612bfb565b90918060409360208452816020850152848401375f828201840152601f01601f1916010190565b15612c8757565b60405162461bcd60e51b8152602060048201526016602482015275082e4e4c2f2e640d8cadccee8d040dad2e6dac2e8c6d60531b6044820152606490fd5b91908110156117e35760051b0190565b35610b35816106c4565b60405190606082018281106001600160401b0382111761042c5760405260028252604082602036910137565b90612d1582610a52565b612d22604051918261044c565b8281528092612d33601f1991610a52565b0190602036910137565b8051600110156117e35760400190565b8051156117e35760200190565b80518210156117e35760209160051b010190565b9190820391821161288257565b91909180518351808203612df5575050612d958151612d0b565b905f5b8151811015612dee5780612ddd60019260051b60208082870101519189010151905f918252602082815260408084206001600160a01b03909316845291905290205490565b612de78286612d5a565b5201612d98565b5090925050565b604051635b05999160e01b815260048101919091526024810191909152604490fd5b15612e1e57565b60405162461bcd60e51b815260206004820152600f60248201526e2737ba1037b93232b91036b0b5b2b960891b6044820152606490fd5b15612e5c57565b60405162461bcd60e51b8152602060048201526011602482015270105b1c9958591e4818d85b98d95b1b1959607a1b6044820152606490fd5b15612e9c57565b60405162461bcd60e51b815260206004820152600e60248201526d105b1c9958591e48199a5b1b195960921b6044820152606490fd5b60405190612edf82610431565b5f8252565b90604051918281549182825260209260208301915f5260205f20935f905b828210612f18575050506104ad9250038361044c565b855484526001958601958895509381019390910190612f02565b91908110156117e35760051b81013590601e19813603018212156102ce5701908135916001600160401b0383116102ce5760200182360381136102ce579190565b15612f7a57565b60405162461bcd60e51b815260206004820152600f60248201526e13dc99195c8818d85b98d95b1b1959608a1b6044820152606490fd5b15612fb857565b60405162461bcd60e51b815260206004820152601460248201527313dc99195c88185b1c9958591e48199a5b1b195960621b6044820152606490fd5b15612ffb57565b60405162461bcd60e51b815260206004820152601860248201527f416d6f756e7420657863656564732072656d61696e696e6700000000000000006044820152606490fd5b9190820180921161288257565b5f80516020613b22833981519152600281541461306a5760029055565b604051633ee5aeb560e01b8152600490fd5b8060011b90808204600214901517156128825790565b8060011b908082046002149015171561288257600181018091116128825790565b908160011b9180830460021490151715612882576130d081611149565b81018091116128825790565b906001600160a01b0382161561264a576104ad9261311760405192600184526020840152604083019160018352606084015260808301604052565b915f60405161312581610431565b52613666565b6040516323b872dd60e01b5f9081526001600160a01b03938416600452938316602452604494909452909160209060648180855af160015f511481161561319d575b836040525f6060521561317f57505050565b635274afe760e01b8352166001600160a01b03166004820152602490fd5b60018115166131b357813b15153d15161661316d565b833d5f823e3d90fd5b60405163a9059cbb60e01b5f9081526001600160a01b039384166004526024949094529260209060448180855af160015f5114811615613205575b836040521561317f57505050565b60018115166131b357813b15153d1516166131f7565b6001600160a01b0381811692169081831415908161325b575b5061323d575050565b604492506040519163711bec9160e11b835260048301526024820152fd5b5f8381526001602090815260408083206001600160a01b0390941683529290522060ff91505416155f613234565b6003546001600160a01b0316330361329d57565b60405163118cdaa760e01b8152336004820152602490fd5b92936001600160a01b0384169390929091908415612661576132f460405192600184526020840152604083019160018352606084015260808301604052565b9290948551845190818103612df55750505f5b8651811015613346578060019160051b61333e610c6387610c11848d6020918291010151958c010151945f525f60205260405f2090565b905501613307565b50929094602080916104ad9660018251145f146133a2575f838301515f80516020613b028339815191526133928689015160405191829133958360209093929193604081019481520152565b0390a45b01519101519133613867565b5f6040515f80516020613ae28339815191523391806133c28a888361379b565b0390a4613396565b91906001600160a01b0383161561264a576104ad925f60405161312581610431565b6001600160a01b038116939091908415612661578151845190818103612df55750505f5b825181101561344d578060019160051b613445610c6387610c11602080868b010151958c010151945f525f60205260405f2090565b905501613410565b5092916104ad9460018351145f14613490576020838101518582015160408051928352928201525f9133915f80516020613b028339815191529190a45b33613a75565b5f6040515f80516020613ae28339815191523391806134b089898361379b565b0390a461348a565b949190918151845190818103612df55750505f5b82518110156135b157600581901b83810160209081015191870101516001600160a01b03929186908a8516613531575b600194821661350f575b505050016134cc565b61352791610c11610c63925f525f60205260405f2090565b90555f8581613506565b919293905061354b8a610c11845f525f60205260405f2090565b5483811061357a57918791846001969594036135728d610c11855f525f60205260405f2090565b5594506134fc565b6040516303dee4c560e01b81526001600160a01b038c16600482015260248101919091526044810184905260648101839052608490fd5b5094919392909360018551145f1461362e576020858101518382015160408051928352928201526001600160a01b03838116929086169133915f80516020613b0283398151915291a45b6001600160a01b038116613611575b5050505050565b6020806136249601519201519233613960565b5f8080808061360a565b6040516001600160a01b03828116919085169033905f80516020613ae2833981519152908061365e888c8361379b565b0390a46135fb565b9291908051825190818103612df55750505f5b815181101561372657600581901b82810160209081015191850101516001600160a01b0387166136ae575b5050600101613679565b6136c387610c11845f525f60205260405f2090565b548181106136ef5787610c1160019594936136e79303935f525f60205260405f2090565b55905f6136a4565b6040516303dee4c560e01b81526001600160a01b038916600482015260248101919091526044810182905260648101839052608490fd5b50905f92939160018151148414613773576020908101519181015160408051938452918301526001600160a01b039092169133915f80516020613b0283398151915291819081015b0390a4565b6040516001600160a01b039093169233925f80516020613ae283398151915292829161376e91835b90916137b2610b3593604084526040840190611205565b916020818403910152611205565b908160209103126102ce5751610b3581610344565b909260a092610b359594600180861b031683525f602084015260408301526060820152816080820152019061050f565b9192610b3595949160a094600180871b03809216855216602084015260408301526060820152816080820152019061050f565b3d15613862573d9061384982610ac9565b91613857604051938461044c565b82523d5f602084013e565b606090565b9293919093843b613879575050505050565b60209161389c604051948593849363f23a6e6160e01b98898652600486016137d5565b03815f6001600160a01b0388165af15f918161392f575b506138f257826138c1613838565b80519190826138eb57604051632bfa23e760e11b81526001600160a01b0383166004820152602490fd5b6020915001fd5b6001600160e01b0319160361390c57505f8080808061360a565b604051632bfa23e760e11b81526001600160a01b03919091166004820152602490fd5b61395291925060203d602011613959575b61394a818361044c565b8101906137c0565b905f6138b3565b503d613940565b939290949194853b613975575b505050505050565b613998602093604051958694859463f23a6e6160e01b998a875260048701613805565b03815f6001600160a01b0388165af15f91816139d8575b506139bd57826138c1613838565b6001600160e01b0319160361390c57505f808080808061396d565b6139f291925060203d6020116139595761394a818361044c565b905f6139af565b92613a27610b359593613a359360018060a01b031686525f602087015260a0604087015260a0860190611205565b908482036060860152611205565b91608081840391015261050f565b9390610b359593613a2791613a359460018060a01b03809216885216602087015260a0604087015260a0860190611205565b9293919093843b613a87575050505050565b60209161389c604051948593849363bc197c8160e01b98898652600486016139f9565b939290949194853b613abe57505050505050565b613998602093604051958694859463bc197c8160e01b998a875260048701613a4356fe4a39dc06d4c0dbc64b70af90fd698a233a518aa5d07e595d983b8c0526c8f7fbc3d58168c5ae7397731d063d5bbf3d657854427343f4c083240f7aacaa2d0f629b779b17422d0df92223018b32b4d1fa46e071723d6817e2486d003becc55f00a26469706673582212208f3133c67e73203415496fa97b2a72ac9ae6d2420667c8a0211ce87dfe7a8b4e64736f6c63430008180033","linkReferences":{}},"methodIdentifiers":{"USDC()":"89a30271","activeOrders(uint256,uint8,uint8,uint256)":"d31c7198","addWord(uint256,string)":"37467204","addWordsBulk(uint256,string[])":"7d120580","balanceOf(address,uint256)":"00fdd58e","balanceOfBatch(address[],uint256[])":"4e1273f4","cancelOrder(uint256)":"514fcac7","claimWinnings(uint256,uint256)":"286db5c2","createCompleteSets(uint256,uint256)":"a11c907a","createEvent(string)":"9bc2bc71","events(uint256)":"0b791430","fillOrder(uint256,uint256)":"c37dfc5b","getActiveOrders(uint256,uint8,uint8)":"853ffc1a","getBestOrders(uint256,uint8,uint8,uint256)":"44a17b43","getEvent(uint256)":"6d1884e0","getOrder(uint256)":"d09ef241","getTokenBalance(address,uint256,uint8)":"cde3c7a3","getUserOrders(address)":"63c69f08","getWord(uint256)":"43503fac","isApprovedForAll(address,address)":"e985e9c5","nextEventId()":"9f9d903a","nextOrderId()":"2a58b330","nextWordId()":"ae452481","orders(uint256)":"a85c38ef","owner()":"8da5cb5b","placeLimitOrder(uint256,uint8,uint8,uint256,uint256)":"1c60c975","redeemCompleteSets(uint256,uint256)":"78262df5","renounceOwnership()":"715018a6","resolveWord(uint256,uint8)":"35209946","resolveWordsBulk(uint256[],uint8[])":"3978798f","safeBatchTransferFrom(address,address,uint256[],uint256[],bytes)":"2eb2c2d6","safeTransferFrom(address,address,uint256,uint256,bytes)":"f242432a","setApprovalForAll(address,bool)":"a22cb465","setEventState(uint256,uint8)":"b2c55a34","setTradingFee(uint256)":"b0d54bcf","supportsInterface(bytes4)":"01ffc9a7","tradingFeeBps()":"924cca9a","transferOwnership(address)":"f2fde38b","uri(uint256)":"0e89341c","userOrders(address,uint256)":"856652e9","withdrawFees(address,uint256)":"ad3b1b47","words(uint256)":"884fc838"},"id":47}